{
  "_format": "hh-sol-artifact-1",
  "contractName": "EnhancedGovernance",
  "sourceName": "contracts/EnhancedGovernance.sol",
  "abi": [
    {
      "inputs": [
        {
          "internalType": "address",
          "name": "_token",
          "type": "address"
        },
        {
          "internalType": "address",
          "name": "_reputationNFT",
          "type": "address"
        },
        {
          "internalType": "address",
          "name": "_multisigWallet",
          "type": "address"
        }
      ],
      "stateMutability": "nonpayable",
      "type": "constructor"
    },
    {
      "anonymous": false,
      "inputs": [
        {
          "indexed": true,
          "internalType": "address",
          "name": "voter",
          "type": "address"
        },
        {
          "indexed": false,
          "internalType": "uint256[]",
          "name": "proposalIds",
          "type": "uint256[]"
        }
      ],
      "name": "BatchVoteCast",
      "type": "event"
    },
    {
      "anonymous": false,
      "inputs": [
        {
          "indexed": true,
          "internalType": "uint256",
          "name": "proposalId",
          "type": "uint256"
        },
        {
          "indexed": true,
          "internalType": "uint256",
          "name": "commentId",
          "type": "uint256"
        },
        {
          "indexed": true,
          "internalType": "address",
          "name": "author",
          "type": "address"
        }
      ],
      "name": "CommentAdded",
      "type": "event"
    },
    {
      "anonymous": false,
      "inputs": [
        {
          "indexed": true,
          "internalType": "address",
          "name": "delegator",
          "type": "address"
        },
        {
          "indexed": true,
          "internalType": "address",
          "name": "delegate",
          "type": "address"
        }
      ],
      "name": "DelegationSet",
      "type": "event"
    },
    {
      "anonymous": false,
      "inputs": [
        {
          "indexed": true,
          "internalType": "address",
          "name": "previousOwner",
          "type": "address"
        },
        {
          "indexed": true,
          "internalType": "address",
          "name": "newOwner",
          "type": "address"
        }
      ],
      "name": "OwnershipTransferred",
      "type": "event"
    },
    {
      "anonymous": false,
      "inputs": [
        {
          "indexed": true,
          "internalType": "uint256",
          "name": "proposalId",
          "type": "uint256"
        },
        {
          "indexed": true,
          "internalType": "address",
          "name": "proposer",
          "type": "address"
        },
        {
          "indexed": false,
          "internalType": "string",
          "name": "title",
          "type": "string"
        },
        {
          "indexed": false,
          "internalType": "string",
          "name": "description",
          "type": "string"
        },
        {
          "indexed": false,
          "internalType": "uint256",
          "name": "startTime",
          "type": "uint256"
        },
        {
          "indexed": false,
          "internalType": "uint256",
          "name": "endTime",
          "type": "uint256"
        }
      ],
      "name": "ProposalCreated",
      "type": "event"
    },
    {
      "anonymous": false,
      "inputs": [
        {
          "indexed": true,
          "internalType": "uint256",
          "name": "proposalId",
          "type": "uint256"
        },
        {
          "indexed": true,
          "internalType": "address",
          "name": "executor",
          "type": "address"
        }
      ],
      "name": "ProposalExecuted",
      "type": "event"
    },
    {
      "anonymous": false,
      "inputs": [
        {
          "indexed": true,
          "internalType": "address",
          "name": "user",
          "type": "address"
        },
        {
          "indexed": false,
          "internalType": "uint256",
          "name": "newScore",
          "type": "uint256"
        },
        {
          "indexed": false,
          "internalType": "enum EnhancedGovernance.UserRank",
          "name": "newRank",
          "type": "uint8"
        }
      ],
      "name": "ReputationUpdated",
      "type": "event"
    },
    {
      "anonymous": false,
      "inputs": [
        {
          "indexed": true,
          "internalType": "uint256",
          "name": "proposalId",
          "type": "uint256"
        },
        {
          "indexed": true,
          "internalType": "address",
          "name": "voter",
          "type": "address"
        },
        {
          "indexed": false,
          "internalType": "enum EnhancedGovernance.VoteOption",
          "name": "option",
          "type": "uint8"
        },
        {
          "indexed": false,
          "internalType": "uint256",
          "name": "votes",
          "type": "uint256"
        },
        {
          "indexed": false,
          "internalType": "uint256",
          "name": "conviction",
          "type": "uint256"
        }
      ],
      "name": "VoteCast",
      "type": "event"
    },
    {
      "inputs": [],
      "name": "MIN_STAKE",
      "outputs": [
        {
          "internalType": "uint256",
          "name": "",
          "type": "uint256"
        }
      ],
      "stateMutability": "view",
      "type": "function"
    },
    {
      "inputs": [],
      "name": "QUORUM",
      "outputs": [
        {
          "internalType": "uint256",
          "name": "",
          "type": "uint256"
        }
      ],
      "stateMutability": "view",
      "type": "function"
    },
    {
      "inputs": [],
      "name": "VOTING_DURATION",
      "outputs": [
        {
          "internalType": "uint256",
          "name": "",
          "type": "uint256"
        }
      ],
      "stateMutability": "view",
      "type": "function"
    },
    {
      "inputs": [
        {
          "internalType": "uint256",
          "name": "proposalId",
          "type": "uint256"
        },
        {
          "internalType": "string",
          "name": "content",
          "type": "string"
        },
        {
          "internalType": "uint256",
          "name": "parentId",
          "type": "uint256"
        }
      ],
      "name": "addComment",
      "outputs": [],
      "stateMutability": "nonpayable",
      "type": "function"
    },
    {
      "inputs": [
        {
          "components": [
            {
              "internalType": "uint256",
              "name": "proposalId",
              "type": "uint256"
            },
            {
              "internalType": "enum EnhancedGovernance.VoteOption",
              "name": "option",
              "type": "uint8"
            },
            {
              "internalType": "uint256",
              "name": "conviction",
              "type": "uint256"
            }
          ],
          "internalType": "struct EnhancedGovernance.BatchVote[]",
          "name": "batchVotes",
          "type": "tuple[]"
        }
      ],
      "name": "batchVote",
      "outputs": [],
      "stateMutability": "nonpayable",
      "type": "function"
    },
    {
      "inputs": [
        {
          "internalType": "uint256",
          "name": "",
          "type": "uint256"
        },
        {
          "internalType": "uint256",
          "name": "",
          "type": "uint256"
        }
      ],
      "name": "comments",
      "outputs": [
        {
          "internalType": "address",
          "name": "author",
          "type": "address"
        },
        {
          "internalType": "string",
          "name": "content",
          "type": "string"
        },
        {
          "internalType": "uint256",
          "name": "timestamp",
          "type": "uint256"
        },
        {
          "internalType": "uint256",
          "name": "parentId",
          "type": "uint256"
        }
      ],
      "stateMutability": "view",
      "type": "function"
    },
    {
      "inputs": [
        {
          "internalType": "string",
          "name": "title",
          "type": "string"
        },
        {
          "internalType": "string",
          "name": "description",
          "type": "string"
        }
      ],
      "name": "createProposal",
      "outputs": [
        {
          "internalType": "uint256",
          "name": "",
          "type": "uint256"
        }
      ],
      "stateMutability": "nonpayable",
      "type": "function"
    },
    {
      "inputs": [
        {
          "internalType": "address",
          "name": "delegate",
          "type": "address"
        }
      ],
      "name": "delegateVoting",
      "outputs": [],
      "stateMutability": "nonpayable",
      "type": "function"
    },
    {
      "inputs": [
        {
          "internalType": "address",
          "name": "",
          "type": "address"
        },
        {
          "internalType": "address",
          "name": "",
          "type": "address"
        }
      ],
      "name": "delegatedVotes",
      "outputs": [
        {
          "internalType": "uint256",
          "name": "",
          "type": "uint256"
        }
      ],
      "stateMutability": "view",
      "type": "function"
    },
    {
      "inputs": [
        {
          "internalType": "uint256",
          "name": "proposalId",
          "type": "uint256"
        }
      ],
      "name": "executeProposal",
      "outputs": [],
      "stateMutability": "nonpayable",
      "type": "function"
    },
    {
      "inputs": [
        {
          "internalType": "uint256",
          "name": "proposalId",
          "type": "uint256"
        },
        {
          "internalType": "uint256",
          "name": "commentId",
          "type": "uint256"
        }
      ],
      "name": "getComment",
      "outputs": [
        {
          "internalType": "address",
          "name": "author",
          "type": "address"
        },
        {
          "internalType": "string",
          "name": "content",
          "type": "string"
        },
        {
          "internalType": "uint256",
          "name": "timestamp",
          "type": "uint256"
        },
        {
          "internalType": "uint256",
          "name": "parentId",
          "type": "uint256"
        }
      ],
      "stateMutability": "view",
      "type": "function"
    },
    {
      "inputs": [
        {
          "internalType": "address",
          "name": "delegate",
          "type": "address"
        }
      ],
      "name": "getDelegatedPower",
      "outputs": [
        {
          "internalType": "uint256",
          "name": "",
          "type": "uint256"
        }
      ],
      "stateMutability": "view",
      "type": "function"
    },
    {
      "inputs": [
        {
          "internalType": "uint256",
          "name": "proposalId",
          "type": "uint256"
        }
      ],
      "name": "getProposal",
      "outputs": [
        {
          "internalType": "uint256",
          "name": "id",
          "type": "uint256"
        },
        {
          "internalType": "address",
          "name": "proposer",
          "type": "address"
        },
        {
          "internalType": "string",
          "name": "title",
          "type": "string"
        },
        {
          "internalType": "string",
          "name": "description",
          "type": "string"
        },
        {
          "internalType": "uint256",
          "name": "startTime",
          "type": "uint256"
        },
        {
          "internalType": "uint256",
          "name": "endTime",
          "type": "uint256"
        },
        {
          "internalType": "uint256",
          "name": "forVotes",
          "type": "uint256"
        },
        {
          "internalType": "uint256",
          "name": "againstVotes",
          "type": "uint256"
        },
        {
          "internalType": "uint256",
          "name": "abstainVotes",
          "type": "uint256"
        },
        {
          "internalType": "bool",
          "name": "executed",
          "type": "bool"
        },
        {
          "internalType": "bool",
          "name": "canceled",
          "type": "bool"
        }
      ],
      "stateMutability": "view",
      "type": "function"
    },
    {
      "inputs": [
        {
          "internalType": "address",
          "name": "user",
          "type": "address"
        }
      ],
      "name": "getUserStats",
      "outputs": [
        {
          "internalType": "enum EnhancedGovernance.UserRank",
          "name": "rank",
          "type": "uint8"
        },
        {
          "internalType": "uint256",
          "name": "reputationScore",
          "type": "uint256"
        },
        {
          "internalType": "uint256",
          "name": "totalVotes",
          "type": "uint256"
        },
        {
          "internalType": "uint256",
          "name": "proposalsCreated",
          "type": "uint256"
        },
        {
          "internalType": "uint256",
          "name": "stakedAmount",
          "type": "uint256"
        }
      ],
      "stateMutability": "view",
      "type": "function"
    },
    {
      "inputs": [
        {
          "internalType": "address",
          "name": "user",
          "type": "address"
        },
        {
          "internalType": "uint256",
          "name": "convictionDays",
          "type": "uint256"
        }
      ],
      "name": "getVotingPower",
      "outputs": [
        {
          "internalType": "uint256",
          "name": "",
          "type": "uint256"
        }
      ],
      "stateMutability": "view",
      "type": "function"
    },
    {
      "inputs": [],
      "name": "governanceToken",
      "outputs": [
        {
          "internalType": "contract SimpleGovernanceToken",
          "name": "",
          "type": "address"
        }
      ],
      "stateMutability": "view",
      "type": "function"
    },
    {
      "inputs": [],
      "name": "owner",
      "outputs": [
        {
          "internalType": "address",
          "name": "",
          "type": "address"
        }
      ],
      "stateMutability": "view",
      "type": "function"
    },
    {
      "inputs": [],
      "name": "proposalCount",
      "outputs": [
        {
          "internalType": "uint256",
          "name": "_value",
          "type": "uint256"
        }
      ],
      "stateMutability": "view",
      "type": "function"
    },
    {
      "inputs": [
        {
          "internalType": "uint256",
          "name": "",
          "type": "uint256"
        }
      ],
      "name": "proposals",
      "outputs": [
        {
          "internalType": "uint256",
          "name": "id",
          "type": "uint256"
        },
        {
          "internalType": "address",
          "name": "proposer",
          "type": "address"
        },
        {
          "internalType": "string",
          "name": "title",
          "type": "string"
        },
        {
          "internalType": "string",
          "name": "description",
          "type": "string"
        },
        {
          "internalType": "uint256",
          "name": "startTime",
          "type": "uint256"
        },
        {
          "internalType": "uint256",
          "name": "endTime",
          "type": "uint256"
        },
        {
          "internalType": "uint256",
          "name": "forVotes",
          "type": "uint256"
        },
        {
          "internalType": "uint256",
          "name": "againstVotes",
          "type": "uint256"
        },
        {
          "internalType": "uint256",
          "name": "abstainVotes",
          "type": "uint256"
        },
        {
          "internalType": "enum EnhancedGovernance.ProposalStatus",
          "name": "status",
          "type": "uint8"
        },
        {
          "internalType": "bool",
          "name": "executed",
          "type": "bool"
        },
        {
          "internalType": "uint256",
          "name": "commentCount",
          "type": "uint256"
        }
      ],
      "stateMutability": "view",
      "type": "function"
    },
    {
      "inputs": [
        {
          "internalType": "enum EnhancedGovernance.UserRank",
          "name": "",
          "type": "uint8"
        }
      ],
      "name": "rankMultipliers",
      "outputs": [
        {
          "internalType": "uint256",
          "name": "",
          "type": "uint256"
        }
      ],
      "stateMutability": "view",
      "type": "function"
    },
    {
      "inputs": [
        {
          "internalType": "enum EnhancedGovernance.UserRank",
          "name": "",
          "type": "uint8"
        }
      ],
      "name": "rankRequirements",
      "outputs": [
        {
          "internalType": "uint256",
          "name": "",
          "type": "uint256"
        }
      ],
      "stateMutability": "view",
      "type": "function"
    },
    {
      "inputs": [],
      "name": "renounceOwnership",
      "outputs": [],
      "stateMutability": "nonpayable",
      "type": "function"
    },
    {
      "inputs": [],
      "name": "reputationNFT",
      "outputs": [
        {
          "internalType": "contract SimpleReputationNFT",
          "name": "",
          "type": "address"
        }
      ],
      "stateMutability": "view",
      "type": "function"
    },
    {
      "inputs": [
        {
          "internalType": "uint256",
          "name": "amount",
          "type": "uint256"
        },
        {
          "internalType": "uint256",
          "name": "lockDays",
          "type": "uint256"
        }
      ],
      "name": "stakeWithLock",
      "outputs": [],
      "stateMutability": "nonpayable",
      "type": "function"
    },
    {
      "inputs": [
        {
          "internalType": "address",
          "name": "",
          "type": "address"
        }
      ],
      "name": "stakedBalances",
      "outputs": [
        {
          "internalType": "uint256",
          "name": "",
          "type": "uint256"
        }
      ],
      "stateMutability": "view",
      "type": "function"
    },
    {
      "inputs": [
        {
          "internalType": "address",
          "name": "",
          "type": "address"
        }
      ],
      "name": "stakingTimestamps",
      "outputs": [
        {
          "internalType": "uint256",
          "name": "",
          "type": "uint256"
        }
      ],
      "stateMutability": "view",
      "type": "function"
    },
    {
      "inputs": [
        {
          "internalType": "address",
          "name": "newOwner",
          "type": "address"
        }
      ],
      "name": "transferOwnership",
      "outputs": [],
      "stateMutability": "nonpayable",
      "type": "function"
    },
    {
      "inputs": [
        {
          "internalType": "uint256",
          "name": "amount",
          "type": "uint256"
        }
      ],
      "name": "unstake",
      "outputs": [],
      "stateMutability": "nonpayable",
      "type": "function"
    },
    {
      "inputs": [
        {
          "internalType": "address",
          "name": "",
          "type": "address"
        }
      ],
      "name": "userStats",
      "outputs": [
        {
          "internalType": "enum EnhancedGovernance.UserRank",
          "name": "rank",
          "type": "uint8"
        },
        {
          "internalType": "uint256",
          "name": "reputationScore",
          "type": "uint256"
        },
        {
          "internalType": "uint256",
          "name": "totalVotes",
          "type": "uint256"
        },
        {
          "internalType": "uint256",
          "name": "proposalsCreated",
          "type": "uint256"
        },
        {
          "internalType": "uint256",
          "name": "lastActivity",
          "type": "uint256"
        },
        {
          "internalType": "address",
          "name": "delegate",
          "type": "address"
        }
      ],
      "stateMutability": "view",
      "type": "function"
    },
    {
      "inputs": [
        {
          "internalType": "uint256",
          "name": "proposalId",
          "type": "uint256"
        },
        {
          "internalType": "enum EnhancedGovernance.VoteOption",
          "name": "option",
          "type": "uint8"
        },
        {
          "internalType": "uint256",
          "name": "convictionDays",
          "type": "uint256"
        }
      ],
      "name": "voteWithConviction",
      "outputs": [],
      "stateMutability": "nonpayable",
      "type": "function"
    },
    {
      "inputs": [
        {
          "internalType": "uint256",
          "name": "",
          "type": "uint256"
        },
        {
          "internalType": "address",
          "name": "",
          "type": "address"
        }
      ],
      "name": "votes",
      "outputs": [
        {
          "internalType": "bool",
          "name": "hasVoted",
          "type": "bool"
        },
        {
          "internalType": "enum EnhancedGovernance.VoteOption",
          "name": "option",
          "type": "uint8"
        },
        {
          "internalType": "uint256",
          "name": "votes",
          "type": "uint256"
        },
        {
          "internalType": "uint256",
          "name": "conviction",
          "type": "uint256"
        }
      ],
      "stateMutability": "view",
      "type": "function"
    }
  ],
  "bytecode": "0x6080346200014c57601f6200307538819003918201601f191683019291906001600160401b03841183851017620001515781606092849260409687528339810103126200014c5781816200005661012c9362000167565b9062000072836200006a6020840162000167565b920162000167565b5060008054336001600160a01b031980831682178455929492936001600160a01b0393909284929083167f8be0079c531659141344cd1fd0a4f28419497f9722a3daafe3b4186f6b6457e08880a31683600254161760025516906003541617600355808052600b602052808281205560018152606482822055600281526101f482822055600381526105dc828220556004815261138882822055808052600c60205260648282205560018152607882822055600281526096828220556003815260c88282205560048152205551612ef890816200017d8239f35b600080fd5b634e487b7160e01b600052604160045260246000fd5b51906001600160a01b03821682036200014c5756fe6080604052600436101561001257600080fd5b60003560e01c8063013cf08b1461212657806304510359146120e85780630d61b51914611e055780631003cded14611db55780631460fa8714611d7b5780632e17de7814611c4a5780632e80d9b614611c2e5780634889275314611bac5780634e43603a14611aca57806365e481e2146113045780636ad0f9681461113f5780636c6db13614610c40578063715018a614610be7578063765cb83a146109f25780638a65d874146109725780638da5cb5b146109495780638ff400f414610899578063937b983b1461085f578063a438d20814610841578063a8d52da3146107fb578063c7f758a81461066d578063cb1c2b5c14610649578063cc7754601461060b578063d23254b414610593578063da35c66414610575578063dc7d08a214610524578063f2fde38b14610460578063f52b9e6814610225578063f96dae0a146101fc578063fa488649146101d35763fc6c776f1461017157600080fd5b346101ce5761017f366123e7565b906000526006602052604060002090600052602052604060002060018060a01b038154166101ca6101b2600184016122c3565b926003600282015491015490604051948594856123fd565b0390f35b600080fd5b346101ce5760003660031901126101ce576003546040516001600160a01b039091168152602090f35b346101ce5760003660031901126101ce576002546040516001600160a01b039091168152602090f35b346101ce576020806003193601126101ce57600435906001600160401b038083116101ce57366023840112156101ce5782600401359081116101ce5760249081840193823691606084020101116101ce57336000526007835261029868056bc75e2d631000006040600020541015612523565b801561042857600a81116103eb576102af81612b75565b916102bd60405193846122a2565b8183526102c982612b75565b8385019590601f190136873760005b83811061036c575050600582029182046005036103585750916102fc849333612bb2565b60405191818301908284525180915260408301939160005b82811061034457337f817f2a3c4e9a6a4a405508b6314ec103b9428b1783f2450bdcbcad9a1c9f89a186880387a2005b835186529481019492810192600101610314565b634e487b7160e01b60009081526011600452fd5b610377818584612b8c565b3586610384838786612b8c565b01359060038210156101ce576103a99160406103a1858988612b8c565b0135916125be565b6103b4818584612b8c565b3585518210156103d657906103d191878260051b880101526125af565b6102d8565b83634e487b7160e01b60005260326004526000fd5b60405162461bcd60e51b8152600481018490526016818401527509ac2f040626040ecdee8cae640e0cae440c4c2e8c6d60531b6044820152606490fd5b60405162461bcd60e51b81526004810184905260118184015270139bc81d9bdd195cc81c1c9bdd9a591959607a1b6044820152606490fd5b346101ce5760203660031901126101ce576104796123bb565b610481612493565b6001600160a01b039081169081156104d057600054826001600160601b0360a01b821617600055167f8be0079c531659141344cd1fd0a4f28419497f9722a3daafe3b4186f6b6457e0600080a3005b60405162461bcd60e51b815260206004820152602660248201527f4f776e61626c653a206e6577206f776e657220697320746865207a65726f206160448201526564647265737360d01b6064820152608490fd5b346101ce5760403660031901126101ce5761053d6123bb565b6105456123d1565b9060018060a01b03809116600052600a602052604060002091166000526020526020604060002054604051908152f35b346101ce5760003660031901126101ce576020600154604051908152f35b346101ce5760403660031901126101ce576105ac6123d1565b600435600052600560205260406000209060018060a01b03166000526020526080604060002080549060026001820154910154906105ff6040519360ff81161515855260ff602086019160081c16612486565b60408301526060820152f35b346101ce5760203660031901126101ce5760043560058110156101ce57610631816123b1565b600052600b6020526020604060002054604051908152f35b346101ce5760003660031901126101ce57602060405168056bc75e2d631000008152f35b346101ce5760203660031901126101ce576004356000526004602052604060002060405161069a8161226b565b8154815260018201546001600160a01b031660208201526106bd600283016122c3565b60408201526106ce600383016122c3565b606082015260048201546080820152600582015460a0820152600682015460c0820152600782015460e08201526008820154610100820152600982015491600660ff841610156107e55760ff83166101208301528260081c60ff161515610140830152600a0154610160820152805190600160a01b6001900360208201511692604082015160608301519260808101519360a082015160c08301519160e084015193610100015194604051998a998a5260208a0152604089016101609052610160890161079a9161238c565b88810360608a01526107ab9161238c565b95608088015260a087015260c086015260e08501526101008401528060081c60ff16151561012084015260ff166005146101408301520390f35b634e487b7160e01b600052602160045260246000fd5b346101ce5760203660031901126101ce576001600160a01b0361081c6123bb565b16600052600a6020526040600020336000526020526020604060002054604051908152f35b346101ce5760003660031901126101ce57602060405162093a808152f35b346101ce5760203660031901126101ce576001600160a01b036108806123bb565b1660005260086020526020604060002054604051908152f35b346101ce5760403660031901126101ce576108b26123bb565b6024359060018060a01b03166000526007602052604060002054600960205260ff604060002054166108e3816123b1565b600052600c602052604060002054918060011b90808204600214901517156109335760640191826064116109335760209261092561092a92620f424094612510565b612510565b04604051908152f35b634e487b7160e01b600052601160045260246000fd5b346101ce5760003660031901126101ce576000546040516001600160a01b039091168152602090f35b346101ce5760203660031901126101ce5760c06001600160a01b03806109966123bb565b16600052600960205260406000209060ff825416916001810154916002820154600383015491600560048501549401541693604051956109d5816123b1565b8652602086015260408501526060840152608083015260a0820152f35b346101ce576020806003193601126101ce57610a0c6123bb565b903360005260078152610a2f68056bc75e2d631000006040600020541015612523565b6001600160a01b0391821691338314610ba257826000526007825260406000205415610b5d578260005260098252600260ff60406000205416610a71816123b1565b10610b185733600052600982526005604060002001541680610af9575b50600981526005604060002001826001600160601b0360a01b825416179055600781526040600020549082600052600a81526040600020903360005252604060002055337f39e3ace752997a751bda5ecf126da84d0d23d5e61f3f56f26a6b22990d7beed8600080a3005b600052600a815260406000203360005281526000604081205582610a8e565b60405162461bcd60e51b815260048101839052601a60248201527f496e73756666696369656e742064656c65676174652072616e6b0000000000006044820152606490fd5b60405162461bcd60e51b815260048101839052601760248201527f44656c6567617465206d757374206265207374616b65640000000000000000006044820152606490fd5b60405162461bcd60e51b815260048101839052601760248201527f43616e6e6f742064656c656761746520746f2073656c660000000000000000006044820152606490fd5b346101ce5760003660031901126101ce57610c00612493565b600080546001600160a01b0319811682556001600160a01b03167f8be0079c531659141344cd1fd0a4f28419497f9722a3daafe3b4186f6b6457e08280a3005b346101ce5760603660031901126101ce576001600160401b036024358181116101ce57610c71903690600401612430565b336000526007602052610c9468056bc75e2d631000006040600020541015612523565b336000526009602052610cbb600160ff60406000205416610cb4816123b1565b101561256f565b60043560005260046020526040600020805415611101578151156110bc576101f482511161108457600a0191610cf183546125af565b80935560405190610d0182612250565b338252602082019283524260408301526044356060830152600435600052600660205260406000208460005260205260406000209260018060a01b038351166001600160601b0360a01b85541617845551805191821161106e57610d686001850154612216565b601f8111611027575b50602090601f8311600114610fb357918060039492606094600092610fa8575b505060001982861b1c1916600191821b17908501555b6040810151600285015501519101553360005260096020526001604060002001805490600382018092116109335755336000526009602052610df6600160406000204260048201550154612d43565b33600052600960205260ff60406000205416610e11816123b1565b610e1a826123b1565b8103610e4e575b5033906004357fdb54cde47150062529bc4f2e10c2493c8ae39bc079c9c24f9e365c135098d4bb600080a4005b3360005260096020526040600020610e65826123b1565b60ff1981541660ff831617905560006020610f2060018060a01b0360035416610e8d856123b1565b610e96856123b1565b610e9f85612da8565b610ed9602660405180936502930b7359d160d51b88830152610ec9815180928a8686019101612369565b81010360068101845201826122a2565b60405194858094819363d011706d60e01b8352336004840152610efb8a6123b1565b896024840152600760448401526001606484015260a0608484015260a483019061238c565b03925af18015610f9c57610f71575b5033600052600960205260016040600020015490604051918252610f52816123b1565b6020820152600080516020612ea383398151915260403392a281610e21565b602090813d8311610f95575b610f8781836122a2565b810103126101ce5782610f2f565b503d610f7d565b6040513d6000823e3d90fd5b015190508780610d91565b906001850160005260206000209160005b601f198516811061100f5750926003949260019260609583601f19811610610ff7575b505050811b016001850155610da7565b015160001983881b60f8161c19169055878080610fe7565b91926020600181928685015181550194019201610fc4565b600185016000526020600020601f840160051c810160208510611067575b601f830160051c8201811061105b575050610d71565b60008155600101611045565b5080611045565b634e487b7160e01b600052604160045260246000fd5b60405162461bcd60e51b815260206004820152601060248201526f436f6d6d656e7420746f6f206c6f6e6760801b6044820152606490fd5b60405162461bcd60e51b815260206004820152601760248201527f436f6d6d656e742063616e6e6f7420626520656d7074790000000000000000006044820152606490fd5b60405162461bcd60e51b8152602060048201526016602482015275141c9bdc1bdcd85b08191bd95cdb89dd08195e1a5cdd60521b6044820152606490fd5b346101ce5761114d366123e7565b9068056bc75e2d6310000081106112c957601e821061128d5761016d8211611250576002546040516323b872dd60e01b815233600482015230602482015260448101839052602092918390829060649082906000906001600160a01b03165af18015610f9c57611223575b50336000526007825260406000206111d1828254612503565b90556201518092838102938185041490151715610933576009670de0b6b3a7640000926112016112219542612503565b336000526008825260406000205552426004604060002001550433612bb2565b005b61124290833d8511611249575b61123a81836122a2565b8101906124eb565b50836111b8565b503d611230565b60405162461bcd60e51b81526020600482015260156024820152744d6178696d756d203336352064617973206c6f636b60581b6044820152606490fd5b60405162461bcd60e51b81526020600482015260146024820152734d696e696d756d2033302064617973206c6f636b60601b6044820152606490fd5b60405162461bcd60e51b815260206004820152601360248201527242656c6f77206d696e696d756d207374616b6560681b6044820152606490fd5b346101ce5760403660031901126101ce576004356001600160401b0381116101ce57611334903690600401612430565b6024356001600160401b0381116101ce57611353903690600401612430565b9033600052600760205261137768056bc75e2d631000006040600020541015612523565b336000526009602052611397600160ff60406000205416610cb4816123b1565b805115611a9457815115611a58576001805401918260015562093a8042014211610933576040516113c78161226b565b83815233602082015282604082015281606082015242608082015262093a80420160a0820152600060c0820152600060e082015260006101008201526001610120820152600061014082015260006101608201528360005260046020526040600020908051825560018060a01b0360208201511660018301906001600160601b0360a01b82541617905560408101518051906001600160401b03821161106e5781906114766002860154612216565b601f8111611a05575b50602090601f831160011461199357600092611988575b50508160011b916000199060031b1c19161760028301555b60608101518051906001600160401b03821161106e5781906114d36003860154612216565b601f8111611935575b50602090601f83116001146118c3576000926118b8575b50508160011b916000199060031b1c19161760038301555b6080810151600483015560a0810151600583015560c0810151600683015560e08101516007830155610100810151600883015560098201906101208101519060068210156107e5578261016092600a945460ff61ff00610140860151151560081b1692169061ffff1916171790550151910155336000526009602052600360406000200161159981546125af565b9055336000526009602052600160406000204260048201550190815460328101809111610933578492553360005260096020526115e3600160406000204260048201550154612d43565b33600052600960205260ff604060002054166115fe816123b1565b611607826123b1565b810361174c575b506116577ffaa337366f7965edea73e5dda4e27a18008218bee177df73f82fc597a1f4dd08916116496040519560808752608087019061238c565b90858203602087015261238c565b9242604082015262093a80420160608201528033940390a36000602060018060a01b03600354163383526009825260e460ff604085205416611698816123b1565b6116a1816123b1565b60405163d011706d60e01b815233600482015294859384926116c2816123b1565b6024840152600260448401526001606484015260a06084840152601960a48401527f456e68616e6365642050726f706f73616c2043726561746f720000000000000060c48401525af18015610f9c57611721575b602082604051908152f35b602090813d8311611745575b61173781836122a2565b810103126101ce5781611716565b503d61172d565b60009250338352600960205260408320611765826123b1565b60ff1981541660ff8316179055602061180e60018060a01b036003541661178b846123b1565b611794846123b1565b61179d84612da8565b6117c7602660405180936502930b7359d160d51b88830152610ec9815180928a8686019101612369565b60405196878094819363d011706d60e01b83523360048401526117e9896123b1565b886024840152600760448401526001606484015260a0608484015260a483019061238c565b03925af1928315610f9c578593611889575b507ffaa337366f7965edea73e5dda4e27a18008218bee177df73f82fc597a1f4dd08916116579133600052600960205260016040600020015490604051918252611869816123b1565b6020820152600080516020612ea383398151915260403392a2915061160e565b6020809294503d83116118b1575b6118a181836122a2565b810103126101ce57839185611820565b503d611897565b0151905087806114f3565b9250600385016000526020600020906000935b601f198416851061191a576001945083601f19811610611901575b505050811b01600383015561150b565b015160001960f88460031b161c191690558780806118f1565b818101518355602094850194600190930192909101906118d6565b909150600385016000526020600020601f840160051c810160208510611981575b90849392915b601f830160051c820181106119725750506114dc565b6000815585945060010161195c565b5080611956565b015190508780611496565b9250600285016000526020600020906000935b601f19841685106119ea576001945083601f198116106119d1575b505050811b0160028301556114ae565b015160001960f88460031b161c191690558780806119c1565b818101518355602094850194600190930192909101906119a6565b909150600285016000526020600020601f840160051c810160208510611a51575b90849392915b601f830160051c82018110611a4257505061147f565b60008155859450600101611a2c565b5080611a26565b60405162461bcd60e51b815260206004820152601460248201527311195cd8dc9a5c1d1a5bdb881c995c5d5a5c995960621b6044820152606490fd5b60405162461bcd60e51b815260206004820152600e60248201526d151a5d1b19481c995c5d5a5c995960921b6044820152606490fd5b346101ce5760203660031901126101ce576001600160a01b0380611aec6123bb565b168060005260096020526040600020916040519160c08301938385106001600160401b0386111761106e5760a09460405260ff81541693611b2c856123b1565b84815260018201549060208101918252866002840154956040830196875260056003860154956060850196875260048101546080860152015416910152611b72856123b1565b51925190519160005260076020526040600020549260405194611b94816123b1565b85526020850152604084015260608301526080820152f35b346101ce57611bba366123e7565b906000526006602052604060002090600052602052604060002060405190611be182612250565b80546001600160a01b039081168352916101ca90611c01600184016122c3565b938460208301526003600285015494856040850152015491826060820152511692604051948594856123fd565b346101ce5760003660031901126101ce57602060405160648152f35b346101ce576020806003193601126101ce5760043533600052600782528060406000205410611d365733600052600882526040600020544210611cfb57336000526007825260406000208054918083039283116109335791905560025460405163a9059cbb60e01b815233600482015260248101929092528290829060449082906000906001600160a01b03165af18015610f9c57611ce557005b8161122192903d106112495761123a81836122a2565b60405162461bcd60e51b8152600481018390526013602482015272151bdad95b9cc81cdd1a5b1b081b1bd8dad959606a1b6044820152606490fd5b60405162461bcd60e51b815260048101839052601b60248201527f496e73756666696369656e74207374616b65642062616c616e636500000000006044820152606490fd5b346101ce5760203660031901126101ce576001600160a01b03611d9c6123bb565b1660005260076020526020604060002054604051908152f35b346101ce5760603660031901126101ce5760243560038110156101ce5761122190336000526007602052611df968056bc75e2d631000006040600020541015612523565b604435906004356125be565b346101ce576020806003193601126101ce57600435806000526004825260406000209160058301544211156120b15760099081840193845460ff8160081c1661207957600682015460078301546064611e6c611e618385612503565b600887015490612503565b1015918261206f575b5050156120635750600192939461010261ffff19825416179055828060a01b039283910154169283600052808252600160406000200180549060648201809211610933575583600052808252611ed8600160406000204260048201550154612d43565b928460005281835260ff60406000205416611ef2816123b1565b611efb856123b1565b8403611f30575b505050505033907f9c85b616f29fca57a17eafe71cf9ff82ffef41766e2cf01ea7f8f7878dd3ec24600080a3005b82611fe760009287845284835260408420611f4a886123b1565b60ff1981541660ff891617905560035416611f64876123b1565b611f6d876123b1565b611f7687612da8565b611fa0602660405180936502930b7359d160d51b88830152610ec9815180928a8686019101612369565b60405194858094819363d011706d60e01b83528c6004840152611fc28c6123b1565b8b6024840152600760448401526001606484015260a0608484015260a483019061238c565b03925af18015610f9c57612036575b5090600080516020612ea3833981519152926040928560005282526001836000200154918351928352612028826123b1565b820152a28180808080611f02565b91809192813d831161205c575b61204d81836122a2565b810103126101ce579085611ff6565b503d612043565b60ff1916600317909455005b1190508780611e75565b60405162461bcd60e51b815260048101849052601060248201526f105b1c9958591e48195e1958dd5d195960821b6044820152606490fd5b6064906040519062461bcd60e51b82526004820152601060248201526f159bdd1a5b99c81b9bdd08195b99195960821b6044820152fd5b346101ce5760203660031901126101ce5760043560058110156101ce5761210e816123b1565b600052600c6020526020604060002054604051908152f35b346101ce5760203660031901126101ce576004356000526004602052604060002080549060018060a01b0360018201541690612164600282016122c3565b91612171600383016122c3565b91600481015492600582015460068301546007840154916121d16008860154946121c360098801549a600a60ff8d169901549960206040519e8f908152015260408d61018091829101528d019061238c565b908b820360608d015261238c565b9660808a015260a089015260c088015260e087015261010086015260068110156107e557849360ff9161012086015260081c1615156101408401526101608301520390f35b90600182811c92168015612246575b602083101461223057565b634e487b7160e01b600052602260045260246000fd5b91607f1691612225565b608081019081106001600160401b0382111761106e57604052565b61018081019081106001600160401b0382111761106e57604052565b604081019081106001600160401b0382111761106e57604052565b90601f801991011681019081106001600160401b0382111761106e57604052565b90604051918260008254926122d784612216565b9081845260019485811690816000146123465750600114612303575b5050612301925003836122a2565b565b9093915060005260209081600020936000915b81831061232e575050612301935082010138806122f3565b85548884018501529485019487945091830191612316565b91505061230194506020925060ff191682840152151560051b82010138806122f3565b60005b83811061237c5750506000910152565b818101518382015260200161236c565b906020916123a581518092818552858086019101612369565b601f01601f1916010190565b600511156107e557565b600435906001600160a01b03821682036101ce57565b602435906001600160a01b03821682036101ce57565b60409060031901126101ce576004359060243590565b6001600160a01b039091168152608060208201819052929493926060926124269183019061238c565b9460408201520152565b81601f820112156101ce578035906001600160401b03821161106e5760405192612464601f8401601f1916602001856122a2565b828452602083830101116101ce57816000926020809301838601378301015290565b9060038210156107e55752565b6000546001600160a01b031633036124a757565b606460405162461bcd60e51b815260206004820152602060248201527f4f776e61626c653a2063616c6c6572206973206e6f7420746865206f776e65726044820152fd5b908160209103126101ce575180151581036101ce5790565b9190820180921161093357565b8181029291811591840414171561093357565b1561252a57565b60405162461bcd60e51b815260206004820152601960248201527f4d757374207374616b65206d696e696d756d20746f6b656e73000000000000006044820152606490fd5b1561257657565b60405162461bcd60e51b8152602060048201526011602482015270496e73756666696369656e742072616e6b60781b6044820152606490fd5b60001981146109335760010190565b909161016d8111612b30576000928284526004906020938285526040928387209260ff90600993828587015416976006891015612b1d576001809903612ae45760058701544211612ab257818b5260058a52878b20338c528a5283888c205416612a7f57338b5260078a52878b2054868b5284898d20541661263f816123b1565b8c52600c8b52888c2054828b1b83810460021484151715612a6c576064019182606411612a6c579161092561267892620f424094612510565b0496885161268581612250565b8a81528b81016003861015612a59578d81878f93528c808501928d84526060860194888652898252600581528282209033835252209351151590845490516003811015612a4357908a61ff0060029695949360081b1692169061ffff191617178455518d840155519101558315600014612a1957600701612707888254612503565b90555b338b52858a526002888c200161272081546125af565b9055338b52858a5288888c20428782015501805490600a8201809211612a0657918b97969593918d9593553385528688526127648b8b872042898201550154612d43565b3386528789528a85818820541661277a816123b1565b612783836123b1565b820361288f575b60e498999a915061279d90518095612486565b89840152898301527f6e8bd44a147cd07b025b7748fc3704d4c79fce242883c53a90dcf5c05189c68960603393a36003543383529486528682205416936001600160a01b03166127ec856123b1565b6127f5856123b1565b8651978895869463d011706d60e01b86523390860152612814816123b1565b6024850152826044850152606484015260a06084840152601060a48401526f21b7b73b34b1ba34b7b7102b37ba32b960811b60c48401525af1908115612886575061285e57505050565b813d831161287f575b61287181836122a2565b8101031261287c5750565b80fd5b503d612867565b513d85823e3d90fd5b6129629a9395979899919294963381528a83528181206128ae856123b1565b805460ff19168a86161790556003546001600160a01b0316908e906128d2866123b1565b6128db866123b1565b8b6128e587612da8565b9461291f6026825180986502930b7359d160d51b8b83015261290f815180928d8686019101612369565b81010360068101895201876122a2565b519e8f958694859363d011706d60e01b8552339085015261293f8a6123b1565b89602485015260076044850152606484015260a0608484015260a483019061238c565b03925af180156129fc57918d9593918d99989795936129bd575b60e498999a50338752898b528c8c88200154908c5191825261299d816123b1565b8b820152600080516020612ea38339815191528c3392a29897968a61278a565b92955092959790939698813d83116129f5575b6129da81836122a2565b810103126129f157928795928b9795928d9561297c565b8b80fd5b503d6129d0565b8a513d8f823e3d90fd5b634e487b7160e01b8d526011875260248dfd5b838a03612a3557600601612a2e888254612503565b905561270a565b600801612a2e888254612503565b50505060248f60218b634e487b7160e01b835252fd5b634e487b7160e01b8e526021885260248efd5b634e487b7160e01b8e526011885260248efd5b875162461bcd60e51b81528086018b9052600d60248201526c105b1c9958591e481d9bdd1959609a1b6044820152606490fd5b875162461bcd60e51b81528086018b9052600c60248201526b159bdd1a5b99c8195b99195960a21b6044820152606490fd5b875162461bcd60e51b81528086018b9052601360248201527250726f706f73616c206e6f742061637469766560681b6044820152606490fd5b634e487b7160e01b8b526021855260248bfd5b60405162461bcd60e51b815260206004820152601760248201527f4d617820333635206461797320636f6e76696374696f6e0000000000000000006044820152606490fd5b6001600160401b03811161106e5760051b60200190565b9190811015612b9c576060020190565b634e487b7160e01b600052603260045260246000fd5b919060018060a01b038093169060009382855260209060098252604092612be0600185892001918254612503565b905583865260098252612bfe60018488204260048201550154612d43565b908487526009835260ff8488205416612c16816123b1565b612c1f836123b1565b8203612c2f575b50505050509050565b82612cbe889287845260098352868420612c48866123b1565b60ff1981541660ff871617905560035416612c62856123b1565b612c6b856123b1565b612c7485612da8565b612c9d6026895180936502930b7359d160d51b88830152610ec9815180928a8686019101612369565b875194858094819363d011706d60e01b83528c6004840152610efb8a6123b1565b03925af18015612d3957612d0b575b506001838786600080516020612ea38339815191529798995260098552200154918351928352612cfc826123b1565b820152a2803880808080612c26565b8290813d8311612d32575b612d2081836122a2565b81010312612d2e5738612ccd565b8580fd5b503d612d16565b84513d89823e3d90fd5b60009060048252600b6020526040822054811015612da157600382526040822054811015612d9a57600282526040822054811015612d93576001825260408220541115612d8d5790565b50600190565b5050600290565b5050600390565b5050600490565b612db1816123b1565b60048114612e8057612dc2816123b1565b60038114612e5c57612dd3816123b1565b60028114612e375780612de76001926123b1565b14612e1057604051612df881612287565b60088152672732bbb1b7b6b2b960c11b602082015290565b604051612e1c81612287565b600b81526a21b7b73a3934b13aba37b960a91b602082015290565b50604051612e4481612287565b600881526744656c656761746560c01b602082015290565b50604051612e6981612287565b600781526610dbdd5b98da5b60ca1b602082015290565b50604051612e8d81612287565b600581526422b63232b960d91b60208201529056fee49cf8896948048b69e1531d3f28ce172d4464f874cedc6c5e3b002d1cc2f20ba26469706673582212203d3c576e24e7bae7607dc0c84886009639b9471f9a1211a1af3c9081d4e07b5064736f6c63430008130033",
  "linkReferences": {},
  "deployedLinkReferences": {}
}