{
  "_format": "hh-sol-artifact-1",
  "contractName": "SimpleGovernanceToken",
  "sourceName": "contracts/SimpleGovernanceToken.sol",
  "abi": [
    {
      "inputs": [],
      "stateMutability": "nonpayable",
      "type": "constructor"
    },
    {
      "anonymous": false,
      "inputs": [
        {
          "indexed": true,
          "internalType": "address",
          "name": "owner",
          "type": "address"
        },
        {
          "indexed": true,
          "internalType": "address",
          "name": "spender",
          "type": "address"
        },
        {
          "indexed": false,
          "internalType": "uint256",
          "name": "value",
          "type": "uint256"
        }
      ],
      "name": "Approval",
      "type": "event"
    },
    {
      "anonymous": false,
      "inputs": [
        {
          "indexed": true,
          "internalType": "address",
          "name": "previousOwner",
          "type": "address"
        },
        {
          "indexed": true,
          "internalType": "address",
          "name": "newOwner",
          "type": "address"
        }
      ],
      "name": "OwnershipTransferred",
      "type": "event"
    },
    {
      "anonymous": false,
      "inputs": [
        {
          "indexed": true,
          "internalType": "address",
          "name": "from",
          "type": "address"
        },
        {
          "indexed": true,
          "internalType": "address",
          "name": "to",
          "type": "address"
        },
        {
          "indexed": false,
          "internalType": "uint256",
          "name": "value",
          "type": "uint256"
        }
      ],
      "name": "Transfer",
      "type": "event"
    },
    {
      "inputs": [
        {
          "internalType": "address",
          "name": "owner",
          "type": "address"
        },
        {
          "internalType": "address",
          "name": "spender",
          "type": "address"
        }
      ],
      "name": "allowance",
      "outputs": [
        {
          "internalType": "uint256",
          "name": "",
          "type": "uint256"
        }
      ],
      "stateMutability": "view",
      "type": "function"
    },
    {
      "inputs": [
        {
          "internalType": "address",
          "name": "spender",
          "type": "address"
        },
        {
          "internalType": "uint256",
          "name": "amount",
          "type": "uint256"
        }
      ],
      "name": "approve",
      "outputs": [
        {
          "internalType": "bool",
          "name": "",
          "type": "bool"
        }
      ],
      "stateMutability": "nonpayable",
      "type": "function"
    },
    {
      "inputs": [
        {
          "internalType": "address",
          "name": "account",
          "type": "address"
        }
      ],
      "name": "balanceOf",
      "outputs": [
        {
          "internalType": "uint256",
          "name": "",
          "type": "uint256"
        }
      ],
      "stateMutability": "view",
      "type": "function"
    },
    {
      "inputs": [
        {
          "internalType": "address",
          "name": "from",
          "type": "address"
        },
        {
          "internalType": "uint256",
          "name": "amount",
          "type": "uint256"
        }
      ],
      "name": "burn",
      "outputs": [],
      "stateMutability": "nonpayable",
      "type": "function"
    },
    {
      "inputs": [],
      "name": "decimals",
      "outputs": [
        {
          "internalType": "uint8",
          "name": "",
          "type": "uint8"
        }
      ],
      "stateMutability": "view",
      "type": "function"
    },
    {
      "inputs": [
        {
          "internalType": "address",
          "name": "spender",
          "type": "address"
        },
        {
          "internalType": "uint256",
          "name": "subtractedValue",
          "type": "uint256"
        }
      ],
      "name": "decreaseAllowance",
      "outputs": [
        {
          "internalType": "bool",
          "name": "",
          "type": "bool"
        }
      ],
      "stateMutability": "nonpayable",
      "type": "function"
    },
    {
      "inputs": [],
      "name": "governanceContract",
      "outputs": [
        {
          "internalType": "address",
          "name": "",
          "type": "address"
        }
      ],
      "stateMutability": "view",
      "type": "function"
    },
    {
      "inputs": [
        {
          "internalType": "address",
          "name": "spender",
          "type": "address"
        },
        {
          "internalType": "uint256",
          "name": "addedValue",
          "type": "uint256"
        }
      ],
      "name": "increaseAllowance",
      "outputs": [
        {
          "internalType": "bool",
          "name": "",
          "type": "bool"
        }
      ],
      "stateMutability": "nonpayable",
      "type": "function"
    },
    {
      "inputs": [
        {
          "internalType": "address",
          "name": "to",
          "type": "address"
        },
        {
          "internalType": "uint256",
          "name": "amount",
          "type": "uint256"
        }
      ],
      "name": "mint",
      "outputs": [],
      "stateMutability": "nonpayable",
      "type": "function"
    },
    {
      "inputs": [],
      "name": "name",
      "outputs": [
        {
          "internalType": "string",
          "name": "",
          "type": "string"
        }
      ],
      "stateMutability": "view",
      "type": "function"
    },
    {
      "inputs": [],
      "name": "owner",
      "outputs": [
        {
          "internalType": "address",
          "name": "",
          "type": "address"
        }
      ],
      "stateMutability": "view",
      "type": "function"
    },
    {
      "inputs": [],
      "name": "renounceOwnership",
      "outputs": [],
      "stateMutability": "nonpayable",
      "type": "function"
    },
    {
      "inputs": [
        {
          "internalType": "address",
          "name": "_governance",
          "type": "address"
        }
      ],
      "name": "setGovernanceContract",
      "outputs": [],
      "stateMutability": "nonpayable",
      "type": "function"
    },
    {
      "inputs": [],
      "name": "symbol",
      "outputs": [
        {
          "internalType": "string",
          "name": "",
          "type": "string"
        }
      ],
      "stateMutability": "view",
      "type": "function"
    },
    {
      "inputs": [],
      "name": "totalSupply",
      "outputs": [
        {
          "internalType": "uint256",
          "name": "",
          "type": "uint256"
        }
      ],
      "stateMutability": "view",
      "type": "function"
    },
    {
      "inputs": [
        {
          "internalType": "address",
          "name": "to",
          "type": "address"
        },
        {
          "internalType": "uint256",
          "name": "amount",
          "type": "uint256"
        }
      ],
      "name": "transfer",
      "outputs": [
        {
          "internalType": "bool",
          "name": "",
          "type": "bool"
        }
      ],
      "stateMutability": "nonpayable",
      "type": "function"
    },
    {
      "inputs": [
        {
          "internalType": "address",
          "name": "from",
          "type": "address"
        },
        {
          "internalType": "address",
          "name": "to",
          "type": "address"
        },
        {
          "internalType": "uint256",
          "name": "amount",
          "type": "uint256"
        }
      ],
      "name": "transferFrom",
      "outputs": [
        {
          "internalType": "bool",
          "name": "",
          "type": "bool"
        }
      ],
      "stateMutability": "nonpayable",
      "type": "function"
    },
    {
      "inputs": [
        {
          "internalType": "address",
          "name": "newOwner",
          "type": "address"
        }
      ],
      "name": "transferOwnership",
      "outputs": [],
      "stateMutability": "nonpayable",
      "type": "function"
    }
  ],
  "bytecode": "0x6080346200043a576040906001600160401b03908083018281118282101762000424578352600e81526020906d29a7a6a4a0a3a7ab102a37b5b2b760911b8282015283519084820182811085821117620004245785526004938483526329a3a7ab60e11b848401528151928184116200040f576003908154946001948587811c9716801562000404575b88881014620003ef578190601f9788811162000399575b508890888311600114620003325760009262000326575b505060001982851b1c191690851b1782555b8051928311620003115786548481811c9116801562000306575b87821014620002f157858111620002a6575b5085908584116001146200023b579383949184926000956200022f575b50501b92600019911b1c19161783555b60058054336001600160a01b03198216811790925585519291906001600160a01b03167f8be0079c531659141344cd1fd0a4f28419497f9722a3daafe3b4186f6b6457e0600080a33315620001f25750506002546b033b2e3c9fd0803ce800000092838201809211620001dd57506000917fddf252ad1be2c89b69c2b068fc378daa952ba7f163c4a11628f55a4df523b3ef9160025533835282815284832084815401905584519384523393a351610d839081620004408239f35b601190634e487b7160e01b6000525260246000fd5b6064928462461bcd60e51b845283015260248201527f45524332303a206d696e7420746f20746865207a65726f2061646472657373006044820152fd5b01519350388062000112565b9190601f198416928860005284886000209460005b8a898383106200028e575050501062000273575b50505050811b01835562000122565b01519060f884600019921b161c191690553880808062000264565b86860151895590970196948501948893500162000250565b87600052866000208680860160051c820192898710620002e7575b0160051c019085905b828110620002da575050620000f5565b60008155018590620002ca565b92508192620002c1565b602288634e487b7160e01b6000525260246000fd5b90607f1690620000e3565b604187634e487b7160e01b6000525260246000fd5b015190503880620000b7565b90879350601f19831691866000528a6000209260005b8c82821062000382575050841162000369575b505050811b018255620000c9565b015160001983871b60f8161c191690553880806200035b565b8385015186558b9790950194938401930162000348565b90915084600052886000208880850160051c8201928b8610620003e5575b918991869594930160051c01915b828110620003d5575050620000a0565b60008155859450899101620003c5565b92508192620003b7565b602289634e487b7160e01b6000525260246000fd5b96607f169662000089565b604186634e487b7160e01b6000525260246000fd5b634e487b7160e01b600052604160045260246000fd5b600080fdfe6080604081815260048036101561001557600080fd5b600092833560e01c90816306fdde03146108a757508063095ea7b31461087d5780631129753f1461083857806318160ddd1461081957806323b872dd1461074f578063313ce5671461073357806339509351146106e357806340c10f191461061457806370a08231146105dd578063715018a6146105805780638da5cb5b1461055757806395d89b41146104375780639dc29fac14610305578063a457c2d71461025e578063a9059cbb1461022d578063b172b22214610204578063dd62ed3e146101b75763f2fde38b146100e957600080fd5b346101b35760203660031901126101b3576101026109e5565b9061010b610a16565b6001600160a01b03918216928315610161575050600554826bffffffffffffffffffffffff60a01b821617600555167f8be0079c531659141344cd1fd0a4f28419497f9722a3daafe3b4186f6b6457e08380a380f35b906020608492519162461bcd60e51b8352820152602660248201527f4f776e61626c653a206e6577206f776e657220697320746865207a65726f206160448201526564647265737360d01b6064820152fd5b8280fd5b505034610200578060031936011261020057806020926101d56109e5565b6101dd610a00565b6001600160a01b0391821683526001865283832091168252845220549051908152f35b5080fd5b50503461020057816003193601126102005760065490516001600160a01b039091168152602090f35b50503461020057806003193601126102005760209061025761024d6109e5565b6024359033610a91565b5160018152f35b5082346103025782600319360112610302576102786109e5565b918360243592338152600160205281812060018060a01b03861682526020522054908282106102b1576020856102578585038733610bff565b608490602086519162461bcd60e51b8352820152602560248201527f45524332303a2064656372656173656420616c6c6f77616e63652062656c6f77604482015264207a65726f60d81b6064820152fd5b80fd5b508290346102005782600319360112610200576103206109e5565b600654602435916001600160a01b039161033d9083163314610d01565b169182156103ea5782845283602052848420549082821061039c57508184957fddf252ad1be2c89b69c2b068fc378daa952ba7f163c4a11628f55a4df523b3ef936020938688528785520381872055816002540360025551908152a380f35b608490602087519162461bcd60e51b8352820152602260248201527f45524332303a206275726e20616d6f756e7420657863656564732062616c616e604482015261636560f01b6064820152fd5b608490602086519162461bcd60e51b8352820152602160248201527f45524332303a206275726e2066726f6d20746865207a65726f206164647265736044820152607360f81b6064820152fd5b50919034610200578160031936011261020057805190828454600181811c9080831692831561054d575b602093848410811461053a5783885290811561051e57506001146104c9575b505050829003601f01601f191682019267ffffffffffffffff8411838510176104b657508291826104b292528261099c565b0390f35b634e487b7160e01b815260418552602490fd5b8787529192508591837f8a35acfbc15ff81a39ae7d344fd709f28e8600b4aa8c65c6b64bfe7fe36bd19b5b83851061050a5750505050830101388080610480565b8054888601830152930192849082016104f4565b60ff1916878501525050151560051b8401019050388080610480565b634e487b7160e01b895260228a52602489fd5b91607f1691610461565b50503461020057816003193601126102005760055490516001600160a01b039091168152602090f35b8334610302578060031936011261030257610599610a16565b600580546001600160a01b0319811690915581906001600160a01b03167f8be0079c531659141344cd1fd0a4f28419497f9722a3daafe3b4186f6b6457e08280a380f35b5050346102005760203660031901126102005760209181906001600160a01b036106056109e5565b16815280845220549051908152f35b5090346101b357806003193601126101b35761062e6109e5565b60065460243592916001600160a01b039161064c9083163314610d01565b169283156106a157506020827fddf252ad1be2c89b69c2b068fc378daa952ba7f163c4a11628f55a4df523b3ef926106878795600254610a6e565b60025585855284835280852082815401905551908152a380f35b6020606492519162461bcd60e51b8352820152601f60248201527f45524332303a206d696e7420746f20746865207a65726f2061646472657373006044820152fd5b50503461020057806003193601126102005761025760209261072c6107066109e5565b338352600186528483206001600160a01b03821684528652918490205460243590610a6e565b9033610bff565b5050346102005781600319360112610200576020905160128152f35b508290346102005760603660031901126102005761076b6109e5565b610773610a00565b91846044359460018060a01b0384168152600160205281812033825260205220549060001982036107ad575b602086610257878787610a91565b8482106107d657509183916107cb6020969561025795033383610bff565b91939481935061079f565b606490602087519162461bcd60e51b8352820152601d60248201527f45524332303a20696e73756666696369656e7420616c6c6f77616e63650000006044820152fd5b5050346102005781600319360112610200576020906002549051908152f35b8334610302576020366003190112610302576108526109e5565b61085a610a16565b60018060a01b03166bffffffffffffffffffffffff60a01b600654161760065580f35b50503461020057806003193601126102005760209061025761089d6109e5565b6024359033610bff565b84915083346101b357826003193601126101b35782600354600181811c90808316928315610992575b602093848410811461053a57838852908115610976575060011461092057505050829003601f01601f191682019267ffffffffffffffff8411838510176104b657508291826104b292528261099c565b600387529192508591837fc2575a0e9e593c00f959f8c92f12db2869c3395a3b0502d05e2516446f71f85b5b8385106109625750505050830101858080610480565b80548886018301529301928490820161094c565b60ff1916878501525050151560051b8401019050858080610480565b91607f16916108d0565b6020808252825181830181905290939260005b8281106109d157505060409293506000838284010152601f8019910116010190565b8181018601518482016040015285016109af565b600435906001600160a01b03821682036109fb57565b600080fd5b602435906001600160a01b03821682036109fb57565b6005546001600160a01b03163303610a2a57565b606460405162461bcd60e51b815260206004820152602060248201527f4f776e61626c653a2063616c6c6572206973206e6f7420746865206f776e65726044820152fd5b91908201809211610a7b57565b634e487b7160e01b600052601160045260246000fd5b6001600160a01b03908116918215610bac5716918215610b5b57600082815280602052604081205491808310610b0757604082827fddf252ad1be2c89b69c2b068fc378daa952ba7f163c4a11628f55a4df523b3ef958760209652828652038282205586815220818154019055604051908152a3565b60405162461bcd60e51b815260206004820152602660248201527f45524332303a207472616e7366657220616d6f756e7420657863656564732062604482015265616c616e636560d01b6064820152608490fd5b60405162461bcd60e51b815260206004820152602360248201527f45524332303a207472616e7366657220746f20746865207a65726f206164647260448201526265737360e81b6064820152608490fd5b60405162461bcd60e51b815260206004820152602560248201527f45524332303a207472616e736665722066726f6d20746865207a65726f206164604482015264647265737360d81b6064820152608490fd5b6001600160a01b03908116918215610cb05716918215610c605760207f8c5be1e5ebec7d5bd14f71427d1e84f3dd0314c0f7b2291e5b200ac8c7c3b925918360005260018252604060002085600052825280604060002055604051908152a3565b60405162461bcd60e51b815260206004820152602260248201527f45524332303a20617070726f766520746f20746865207a65726f206164647265604482015261737360f01b6064820152608490fd5b60405162461bcd60e51b8152602060048201526024808201527f45524332303a20617070726f76652066726f6d20746865207a65726f206164646044820152637265737360e01b6064820152608490fd5b15610d0857565b60405162461bcd60e51b815260206004820152601860248201527f4f6e6c7920676f7665726e616e63652063616e2063616c6c00000000000000006044820152606490fdfea26469706673582212206ccc8bb249cdbf01378306f004f442c8441cd966b79c7c42c605aa0083ea27a764736f6c63430008130033",
  "linkReferences": {},
  "deployedLinkReferences": {}
}