{
  "_format": "hh-sol-artifact-1",
  "contractName": "SimpleReputationNFT",
  "sourceName": "contracts/SimpleReputationNFT.sol",
  "abi": [
    {
      "inputs": [],
      "stateMutability": "nonpayable",
      "type": "constructor"
    },
    {
      "anonymous": false,
      "inputs": [
        {
          "indexed": true,
          "internalType": "address",
          "name": "owner",
          "type": "address"
        },
        {
          "indexed": true,
          "internalType": "address",
          "name": "approved",
          "type": "address"
        },
        {
          "indexed": true,
          "internalType": "uint256",
          "name": "tokenId",
          "type": "uint256"
        }
      ],
      "name": "Approval",
      "type": "event"
    },
    {
      "anonymous": false,
      "inputs": [
        {
          "indexed": true,
          "internalType": "address",
          "name": "owner",
          "type": "address"
        },
        {
          "indexed": true,
          "internalType": "address",
          "name": "operator",
          "type": "address"
        },
        {
          "indexed": false,
          "internalType": "bool",
          "name": "approved",
          "type": "bool"
        }
      ],
      "name": "ApprovalForAll",
      "type": "event"
    },
    {
      "anonymous": false,
      "inputs": [
        {
          "indexed": true,
          "internalType": "address",
          "name": "previousOwner",
          "type": "address"
        },
        {
          "indexed": true,
          "internalType": "address",
          "name": "newOwner",
          "type": "address"
        }
      ],
      "name": "OwnershipTransferred",
      "type": "event"
    },
    {
      "anonymous": false,
      "inputs": [
        {
          "indexed": true,
          "internalType": "address",
          "name": "from",
          "type": "address"
        },
        {
          "indexed": true,
          "internalType": "address",
          "name": "to",
          "type": "address"
        },
        {
          "indexed": true,
          "internalType": "uint256",
          "name": "tokenId",
          "type": "uint256"
        }
      ],
      "name": "Transfer",
      "type": "event"
    },
    {
      "inputs": [
        {
          "internalType": "address",
          "name": "to",
          "type": "address"
        },
        {
          "internalType": "uint256",
          "name": "tokenId",
          "type": "uint256"
        }
      ],
      "name": "approve",
      "outputs": [],
      "stateMutability": "nonpayable",
      "type": "function"
    },
    {
      "inputs": [
        {
          "internalType": "uint256",
          "name": "",
          "type": "uint256"
        }
      ],
      "name": "badges",
      "outputs": [
        {
          "internalType": "uint256",
          "name": "id",
          "type": "uint256"
        },
        {
          "internalType": "address",
          "name": "owner",
          "type": "address"
        },
        {
          "internalType": "enum SimpleReputationNFT.UserRank",
          "name": "rank",
          "type": "uint8"
        },
        {
          "internalType": "enum SimpleReputationNFT.BadgeType",
          "name": "badgeType",
          "type": "uint8"
        },
        {
          "internalType": "uint256",
          "name": "level",
          "type": "uint256"
        },
        {
          "internalType": "uint256",
          "name": "experience",
          "type": "uint256"
        },
        {
          "internalType": "uint256",
          "name": "timestamp",
          "type": "uint256"
        },
        {
          "internalType": "string",
          "name": "metadata",
          "type": "string"
        }
      ],
      "stateMutability": "view",
      "type": "function"
    },
    {
      "inputs": [
        {
          "internalType": "address",
          "name": "owner",
          "type": "address"
        }
      ],
      "name": "balanceOf",
      "outputs": [
        {
          "internalType": "uint256",
          "name": "",
          "type": "uint256"
        }
      ],
      "stateMutability": "view",
      "type": "function"
    },
    {
      "inputs": [
        {
          "internalType": "uint256",
          "name": "tokenId",
          "type": "uint256"
        }
      ],
      "name": "getApproved",
      "outputs": [
        {
          "internalType": "address",
          "name": "",
          "type": "address"
        }
      ],
      "stateMutability": "view",
      "type": "function"
    },
    {
      "inputs": [
        {
          "internalType": "address",
          "name": "user",
          "type": "address"
        }
      ],
      "name": "getUserBadges",
      "outputs": [
        {
          "internalType": "uint256[]",
          "name": "",
          "type": "uint256[]"
        }
      ],
      "stateMutability": "view",
      "type": "function"
    },
    {
      "inputs": [],
      "name": "governanceContract",
      "outputs": [
        {
          "internalType": "address",
          "name": "",
          "type": "address"
        }
      ],
      "stateMutability": "view",
      "type": "function"
    },
    {
      "inputs": [
        {
          "internalType": "address",
          "name": "owner",
          "type": "address"
        },
        {
          "internalType": "address",
          "name": "operator",
          "type": "address"
        }
      ],
      "name": "isApprovedForAll",
      "outputs": [
        {
          "internalType": "bool",
          "name": "",
          "type": "bool"
        }
      ],
      "stateMutability": "view",
      "type": "function"
    },
    {
      "inputs": [
        {
          "internalType": "address",
          "name": "to",
          "type": "address"
        },
        {
          "internalType": "enum SimpleReputationNFT.UserRank",
          "name": "rank",
          "type": "uint8"
        },
        {
          "internalType": "enum SimpleReputationNFT.BadgeType",
          "name": "badgeType",
          "type": "uint8"
        },
        {
          "internalType": "uint256",
          "name": "level",
          "type": "uint256"
        },
        {
          "internalType": "string",
          "name": "metadata",
          "type": "string"
        }
      ],
      "name": "mintBadge",
      "outputs": [
        {
          "internalType": "uint256",
          "name": "",
          "type": "uint256"
        }
      ],
      "stateMutability": "nonpayable",
      "type": "function"
    },
    {
      "inputs": [],
      "name": "name",
      "outputs": [
        {
          "internalType": "string",
          "name": "",
          "type": "string"
        }
      ],
      "stateMutability": "view",
      "type": "function"
    },
    {
      "inputs": [],
      "name": "owner",
      "outputs": [
        {
          "internalType": "address",
          "name": "",
          "type": "address"
        }
      ],
      "stateMutability": "view",
      "type": "function"
    },
    {
      "inputs": [
        {
          "internalType": "uint256",
          "name": "tokenId",
          "type": "uint256"
        }
      ],
      "name": "ownerOf",
      "outputs": [
        {
          "internalType": "address",
          "name": "",
          "type": "address"
        }
      ],
      "stateMutability": "view",
      "type": "function"
    },
    {
      "inputs": [],
      "name": "renounceOwnership",
      "outputs": [],
      "stateMutability": "nonpayable",
      "type": "function"
    },
    {
      "inputs": [
        {
          "internalType": "address",
          "name": "from",
          "type": "address"
        },
        {
          "internalType": "address",
          "name": "to",
          "type": "address"
        },
        {
          "internalType": "uint256",
          "name": "tokenId",
          "type": "uint256"
        }
      ],
      "name": "safeTransferFrom",
      "outputs": [],
      "stateMutability": "nonpayable",
      "type": "function"
    },
    {
      "inputs": [
        {
          "internalType": "address",
          "name": "from",
          "type": "address"
        },
        {
          "internalType": "address",
          "name": "to",
          "type": "address"
        },
        {
          "internalType": "uint256",
          "name": "tokenId",
          "type": "uint256"
        },
        {
          "internalType": "bytes",
          "name": "data",
          "type": "bytes"
        }
      ],
      "name": "safeTransferFrom",
      "outputs": [],
      "stateMutability": "nonpayable",
      "type": "function"
    },
    {
      "inputs": [
        {
          "internalType": "address",
          "name": "operator",
          "type": "address"
        },
        {
          "internalType": "bool",
          "name": "approved",
          "type": "bool"
        }
      ],
      "name": "setApprovalForAll",
      "outputs": [],
      "stateMutability": "nonpayable",
      "type": "function"
    },
    {
      "inputs": [
        {
          "internalType": "address",
          "name": "_governance",
          "type": "address"
        }
      ],
      "name": "setGovernanceContract",
      "outputs": [],
      "stateMutability": "nonpayable",
      "type": "function"
    },
    {
      "inputs": [
        {
          "internalType": "bytes4",
          "name": "interfaceId",
          "type": "bytes4"
        }
      ],
      "name": "supportsInterface",
      "outputs": [
        {
          "internalType": "bool",
          "name": "",
          "type": "bool"
        }
      ],
      "stateMutability": "view",
      "type": "function"
    },
    {
      "inputs": [],
      "name": "symbol",
      "outputs": [
        {
          "internalType": "string",
          "name": "",
          "type": "string"
        }
      ],
      "stateMutability": "view",
      "type": "function"
    },
    {
      "inputs": [
        {
          "internalType": "uint256",
          "name": "tokenId",
          "type": "uint256"
        }
      ],
      "name": "tokenURI",
      "outputs": [
        {
          "internalType": "string",
          "name": "",
          "type": "string"
        }
      ],
      "stateMutability": "view",
      "type": "function"
    },
    {
      "inputs": [
        {
          "internalType": "address",
          "name": "from",
          "type": "address"
        },
        {
          "internalType": "address",
          "name": "to",
          "type": "address"
        },
        {
          "internalType": "uint256",
          "name": "tokenId",
          "type": "uint256"
        }
      ],
      "name": "transferFrom",
      "outputs": [],
      "stateMutability": "nonpayable",
      "type": "function"
    },
    {
      "inputs": [
        {
          "internalType": "address",
          "name": "newOwner",
          "type": "address"
        }
      ],
      "name": "transferOwnership",
      "outputs": [],
      "stateMutability": "nonpayable",
      "type": "function"
    },
    {
      "inputs": [
        {
          "internalType": "address",
          "name": "user",
          "type": "address"
        },
        {
          "internalType": "enum SimpleReputationNFT.UserRank",
          "name": "newRank",
          "type": "uint8"
        }
      ],
      "name": "updateRank",
      "outputs": [],
      "stateMutability": "nonpayable",
      "type": "function"
    },
    {
      "inputs": [
        {
          "internalType": "address",
          "name": "",
          "type": "address"
        },
        {
          "internalType": "uint256",
          "name": "",
          "type": "uint256"
        }
      ],
      "name": "userBadges",
      "outputs": [
        {
          "internalType": "uint256",
          "name": "",
          "type": "uint256"
        }
      ],
      "stateMutability": "view",
      "type": "function"
    },
    {
      "inputs": [
        {
          "internalType": "address",
          "name": "",
          "type": "address"
        }
      ],
      "name": "userRanks",
      "outputs": [
        {
          "internalType": "enum SimpleReputationNFT.UserRank",
          "name": "",
          "type": "uint8"
        }
      ],
      "stateMutability": "view",
      "type": "function"
    }
  ],
  "bytecode": "0x6080346200036e576001600160401b039060408181018381118382101762000358578152601382526020917f534f4d4941474f562052657075746174696f6e00000000000000000000000000838201528151938285018581108282111762000358578352600785526614d1d3d593919560ca1b84860152815181811162000358576000948554916001948584811c941680156200034d575b8385101462000339578190601f94858111620002e6575b5083908583116001146200028257899262000276575b5050600019600383901b1c191690851b1786555b8651928311620002625783548481811c9116801562000257575b828210146200024357828111620001fb575b50809183116001146200019457508495829394959262000188575b5050600019600383901b1c191690821b1790555b60068054336001600160a01b03198216811790925591519290916001600160a01b0316907f8be0079c531659141344cd1fd0a4f28419497f9722a3daafe3b4186f6b6457e09080a36119839081620003748239f35b0151905038806200011f565b90601f198316968487528287209287905b898210620001e3575050838596979810620001c9575b505050811b01905562000133565b015160001960f88460031b161c19169055388080620001bb565b808785968294968601518155019501930190620001a5565b8487528187208380860160051c82019284871062000239575b0160051c019085905b8281106200022d57505062000104565b8881550185906200021d565b9250819262000214565b634e487b7160e01b87526022600452602487fd5b90607f1690620000f2565b634e487b7160e01b86526041600452602486fd5b015190503880620000c4565b898052848a208894509190601f1984168b5b87828210620002cf5750508411620002b5575b505050811b018655620000d8565b015160001960f88460031b161c19169055388080620002a7565b8385015186558b9790950194938401930162000294565b9091508880528389208580850160051c8201928686106200032f575b918991869594930160051c01915b82811062000320575050620000ae565b8b815585945089910162000310565b9250819262000302565b634e487b7160e01b88526022600452602488fd5b93607f169362000097565b634e487b7160e01b600052604160045260246000fd5b600080fdfe6080604081815260048036101561001557600080fd5b600092833560e01c90816301ffc9a7146110ab5750806306fdde0314611003578063081812fc14610fe3578063095ea7b314610e765780631129753f14610e3657806323b872dd14610e0c57806337c245fe14610d5f57806342842e0e14610d105780634d5edd2814610ccc5780636352211e14610c9b57806370a0823114610c05578063715018a614610ba85780638da5cb5b14610b7f57806395d89b4114610a9c57806398e36d8b146109e1578063a22cb46514610916578063b172b222146108ed578063b88d4fde14610889578063c87b56dd146106d4578063d011706d146102ff578063df91cc23146102a6578063e1f5dc6b14610246578063e985e9c5146101f45763f2fde38b1461012b57600080fd5b346101f05760203660031901126101f05761014461115f565b9061014d61139e565b6001600160a01b0391821692831561019e575050600654826001600160601b0360a01b821617600655167f8be0079c531659141344cd1fd0a4f28419497f9722a3daafe3b4186f6b6457e08380a380f35b906020608492519162461bcd60e51b8352820152602660248201527f4f776e61626c653a206e6577206f776e657220697320746865207a65726f206160448201526564647265737360d01b6064820152fd5b8280fd5b50503461024257806003193601126102425760ff8160209361021461115f565b61021c61117a565b6001600160a01b0391821683526005875283832091168252855220549151911615158152f35b5080fd5b50503461024257806003193601126102425761026061115f565b906024359160058310156102a257600b546001600160a01b039190610288908316331461189d565b168352600a60205282209060ff8019835416911617905580f35b8380fd5b5050346102425780600319360112610242576102c061115f565b6001600160a01b031682526009602052808220805460243593908410156102fc57506020926102ee91611370565b91905490519160031b1c8152f35b80fd5b509190346102425760a03660031901126102425761031b61115f565b9060249081359260058410156106d0576044359560088710156106cc5767ffffffffffffffff936084358581116106c857366023820112156106c85736828285013592019161036992611339565b600b546001600160a01b039690610383908816331461189d565b60019485600754018099816007558b89519361039e85611222565b83855260209e8f938d85880193169d8e84528d8801916103be90836118e9565b60608801926103cd90846118f5565b8d6080890195606435875260a08a019781895260c08b0199428b5260e08c019d8e5282526008905220975188558c8801935116835491519260058410156106b3575160088110156106b3576001600160b01b03199092161760a09290921b60ff60a01b169190911760a89190911b60ff60a81b16179055516002840155516003830155518582015591518051600593909301929182116106a157819061047384546111e8565b601f8111610651575b508b90601f83116001146105ef578b926105e4575b5050600019600383901b1c191690851b1790555b84875260098852838720805490680100000000000000008210156105d257906104d2918582018155611370565b81549060031b9088821b91600019901b191617905584156105915750506000848152600260205260409020548493929190610519906001600160a01b031615155b15611901565b60008481526002602052604090205461053c906001600160a01b03161515610513565b82865260038752818620805490910190558285526002865280852080546001600160a01b0319168317905551937fddf252ad1be2c89b69c2b068fc378daa952ba7f163c4a11628f55a4df523b3ef8180a48152f35b835162461bcd60e51b815291820188905281018790527f4552433732313a206d696e7420746f20746865207a65726f20616464726573736044820152606490fd5b634e487b7160e01b8952604184528289fd5b015190503880610491565b848c528c8c208894509190601f1984168d8f5b828210610638575050841161061f575b505050811b0190556104a5565b015160001960f88460031b161c19169055388080610612565b8484015186558b97909501949384019390810190610602565b909150838b528b8b20601f840160051c8101918d8510610697575b84939291601f8a920160051c01915b82811061068957505061047c565b8d815585945089910161067b565b909150819061066c565b634e487b7160e01b8a5260418552838afd5b505050888f60218c634e487b7160e01b835252fd5b8780fd5b8580fd5b8480fd5b5090346101f057602091826003193601126102a257908161076b60058360e09761088596358152600888522084519361070c85611222565b8154855260018201546001600160a01b038116898701526107499060ff9061073c60a082901c83168a8a016118e9565b60a81c16606087016118f5565b60028201546080860152600382015460a086015281015460c085015201611277565b948591015261087660b9825180967f646174613a6170706c69636174696f6e2f6a736f6e3b6261736536342c00000087830152683d913730b6b2911d11831b603d8301526107c28151809289604686019101611117565b61088b60f21b90820160468101919091527f226465736372697074696f6e223a22534f4d4941474f562052657075746174696048820152691bdb8810985919d9488b60b21b60688201527f22696d616765223a2268747470733a2f2f7669612e706c616365686f6c64657260728201527f2e636f6d2f323030783230302f4646443730302f3030303030303f746578743d6092820152664261646765227d60c81b60b2820152036099810187520185611255565b5192828493845283019061113a565b0390f35b838234610242576080366003190112610242576108a461115f565b6108ac61117a565b9060643567ffffffffffffffff81116106d057366023820112156106d0576108ea938160246108e093369301359101611339565b9160443591611508565b80f35b505034610242578160031936011261024257600b5490516001600160a01b039091168152602090f35b5090346101f057806003193601126101f05761093061115f565b90602435918215158093036106d0576001600160a01b03169233841461099f5750338452600560205280842083855260205280842060ff1981541660ff8416179055519081527f17307eab39ab6107e8899845ad3d59bd9653f200f220920489ca2b5937696c3160203392a380f35b6020606492519162461bcd60e51b8352820152601960248201527f4552433732313a20617070726f766520746f2063616c6c6572000000000000006044820152fd5b509190346102425760203660031901126102425782358252600860205280822080549260018201549060ff8260a81c16600284015491610a5360038601549460ff610a3260058c8a01549901611277565b89519a8b526001600160a01b03831660208c0152988a019160a01c166111c5565b6008821015610a8957506060860152608085015260a084015260c083015261010060e0830181905282916108859183019061113a565b634e487b7160e01b815260218852602490fd5b505034610242578160031936011261024257805190826001805491610ac0836111e8565b80865292828116908115610b575750600114610afb575b505050610ae982610885940383611255565b5191829160208352602083019061113a565b94508085527fb10e2d527612073b26eecdfd717e6a320cf44b4afac2b0732d9fcbe2b7fa0cf65b828610610b3f57505050610ae98260206108859582010194610ad7565b80546020878701810191909152909501948101610b22565b610885975086935060209250610ae994915060ff191682840152151560051b82010194610ad7565b50503461024257816003193601126102425760065490516001600160a01b039091168152602090f35b83346102fc57806003193601126102fc57610bc161139e565b600680546001600160a01b0319811690915581906001600160a01b03167f8be0079c531659141344cd1fd0a4f28419497f9722a3daafe3b4186f6b6457e08280a380f35b50829034610242576020366003190112610242576001600160a01b03610c2961115f565b16908115610c465760208480858581526003845220549051908152f35b608490602085519162461bcd60e51b8352820152602960248201527f4552433732313a2061646472657373207a65726f206973206e6f7420612076616044820152683634b21037bbb732b960b91b6064820152fd5b5091346102fc5760203660031901126102fc5750610cbb60209235611442565b90516001600160a01b039091168152f35b50503461024257602036600319011261024257602091610d0e9060ff9083906001600160a01b03610cfb61115f565b168152600a8652205416915180926111c5565bf35b5091903461024257610d2136611190565b91835193602085019085821067ffffffffffffffff831117610d4c576108ea96975052858452611508565b634e487b7160e01b875260418852602487fd5b8284346102fc57602090816003193601126102fc5782906001600160a01b03610d8661115f565b16815260098352818120908251808584549182815201908194845286842090845b818110610df85750505081610dbd910382611255565b83519485948186019282875251809352850193925b828110610de157505050500390f35b835185528695509381019392810192600101610dd2565b825484529288019260019283019201610da7565b83346102fc576108ea610e1e36611190565b91610e31610e2c84336115a3565b6114a6565b61166b565b83346102fc5760203660031901126102fc57610e5061115f565b610e5861139e565b60018060a01b03166001600160601b0360a01b600b541617600b5580f35b50346101f057816003193601126101f057610e8f61115f565b6024359290916001600160a01b0391908280610eaa87611442565b16941693808514610f9657803314908115610f77575b5015610f0f57848652602052842080546001600160a01b03191683179055610ee783611442565b167f8c5be1e5ebec7d5bd14f71427d1e84f3dd0314c0f7b2291e5b200ac8c7c3b9258480a480f35b6020608492519162461bcd60e51b8352820152603d60248201527f4552433732313a20617070726f76652063616c6c6572206973206e6f7420746f60448201527f6b656e206f776e6572206f7220617070726f76656420666f7220616c6c0000006064820152fd5b90508652600560205281862033875260205260ff828720541638610ec0565b506020608492519162461bcd60e51b8352820152602160248201527f4552433732313a20617070726f76616c20746f2063757272656e74206f776e656044820152603960f91b6064820152fd5b5091346102fc5760203660031901126102fc5750610cbb60209235611468565b505034610242578160031936011261024257805190828054611024816111e8565b80855291600191808316908115610b57575060011461104f57505050610ae982610885940383611255565b80809650527f290decd9548b62a8d60345a988386fc84ba6bc95484008f6362f93160ef3e5635b82861061109357505050610ae98260206108859582010194610ad7565b80546020878701810191909152909501948101611076565b925050346101f05760203660031901126101f0573563ffffffff60e01b81168091036101f057602092506380ac58cd60e01b8114908115611106575b81156110f5575b5015158152f35b6301ffc9a760e01b149050386110ee565b635b5e139f60e01b811491506110e7565b60005b83811061112a5750506000910152565b818101518382015260200161111a565b9060209161115381518092818552858086019101611117565b601f01601f1916010190565b600435906001600160a01b038216820361117557565b600080fd5b602435906001600160a01b038216820361117557565b6060906003190112611175576001600160a01b0390600435828116810361117557916024359081168103611175579060443590565b9060058210156111d25752565b634e487b7160e01b600052602160045260246000fd5b90600182811c92168015611218575b602083101461120257565b634e487b7160e01b600052602260045260246000fd5b91607f16916111f7565b610100810190811067ffffffffffffffff82111761123f57604052565b634e487b7160e01b600052604160045260246000fd5b90601f8019910116810190811067ffffffffffffffff82111761123f57604052565b906040519182600082549261128b846111e8565b9081845260019485811690816000146112fa57506001146112b7575b50506112b592500383611255565b565b9093915060005260209081600020936000915b8183106112e25750506112b5935082010138806112a7565b855488840185015294850194879450918301916112ca565b9150506112b594506020925060ff191682840152151560051b82010138806112a7565b67ffffffffffffffff811161123f57601f01601f191660200190565b9291926113458261131d565b916113536040519384611255565b829481845281830111611175578281602093846000960137010152565b80548210156113885760005260206000200190600090565b634e487b7160e01b600052603260045260246000fd5b6006546001600160a01b031633036113b257565b606460405162461bcd60e51b815260206004820152602060248201527f4f776e61626c653a2063616c6c6572206973206e6f7420746865206f776e65726044820152fd5b156113fd57565b60405162461bcd60e51b815260206004820152601860248201527f4552433732313a20696e76616c696420746f6b656e20494400000000000000006044820152606490fd5b6000908152600260205260409020546001600160a01b03166114658115156113f6565b90565b60008181526002602052604090205461148b906001600160a01b031615156113f6565b6000908152600460205260409020546001600160a01b031690565b156114ad57565b60405162461bcd60e51b815260206004820152602d60248201527f4552433732313a2063616c6c6572206973206e6f7420746f6b656e206f776e6560448201526c1c881bdc88185c1c1c9bdd9959609a1b6064820152608490fd5b9061152c93929161151c610e2c84336115a3565b61152783838361166b565b61177c565b1561153357565b60405162461bcd60e51b81528061154c60048201611550565b0390fd5b60809060208152603260208201527f4552433732313a207472616e7366657220746f206e6f6e20455243373231526560408201527131b2b4bb32b91034b6b83632b6b2b73a32b960711b60608201520190565b906001600160a01b0380806115b784611442565b169316918383149384156115ea575b5083156115d4575b50505090565b6115e091929350611468565b16143880806115ce565b909350600052600560205260406000208260005260205260ff6040600020541692386115c6565b1561161857565b60405162461bcd60e51b815260206004820152602560248201527f4552433732313a207472616e736665722066726f6d20696e636f72726563742060448201526437bbb732b960d91b6064820152608490fd5b906116939161167984611442565b6001600160a01b0393918416928492909183168414611611565b1691821561172b57816116b0916116a986611442565b1614611611565b7fddf252ad1be2c89b69c2b068fc378daa952ba7f163c4a11628f55a4df523b3ef60008481526004602052604081206001600160601b0360a01b9081815416905583825260036020526040822060001981540190558482526040822060018154019055858252600260205284604083209182541617905580a4565b60405162461bcd60e51b8152602060048201526024808201527f4552433732313a207472616e7366657220746f20746865207a65726f206164646044820152637265737360e01b6064820152608490fd5b9293600093909291803b15611892579484916117d69660405180948193630a85bd0160e11b9788845233600485015260018060a01b0380921660248501526044840152608060648401528260209b8c97608483019061113a565b0393165af1849181611852575b50611841575050503d600014611839573d6117fd8161131d565b9061180b6040519283611255565b81528091833d92013e5b805191826118365760405162461bcd60e51b81528061154c60048201611550565b01fd5b506060611815565b6001600160e01b0319161492509050565b9091508581813d831161188b575b61186a8183611255565b810103126106d057516001600160e01b0319811681036106d05790386117e3565b503d611860565b505050915050600190565b156118a457565b60405162461bcd60e51b815260206004820152601860248201527f4f6e6c7920676f7665726e616e63652063616e2063616c6c00000000000000006044820152606490fd5b60058210156111d25752565b60088210156111d25752565b1561190857565b60405162461bcd60e51b815260206004820152601c60248201527f4552433732313a20746f6b656e20616c7265616479206d696e746564000000006044820152606490fdfea26469706673582212200d23b973ba3f7f25750ced6e5ee202e7550b5e883d0655529ad6bbec5a73dd3064736f6c63430008130033",
  "linkReferences": {},
  "deployedLinkReferences": {}
}